{
  "_format": "hh-sol-artifact-1",
  "contractName": "Marcsterpiece",
  "sourceName": "contracts/Marcsterpiece.sol",
  "abi": [
    {
      "inputs": [],
      "stateMutability": "nonpayable",
      "type": "constructor"
    },
    {
      "anonymous": false,
      "inputs": [
        {
          "indexed": true,
          "internalType": "address",
          "name": "owner",
          "type": "address"
        },
        {
          "indexed": true,
          "internalType": "address",
          "name": "approved",
          "type": "address"
        },
        {
          "indexed": true,
          "internalType": "uint256",
          "name": "tokenId",
          "type": "uint256"
        }
      ],
      "name": "Approval",
      "type": "event"
    },
    {
      "anonymous": false,
      "inputs": [
        {
          "indexed": true,
          "internalType": "address",
          "name": "owner",
          "type": "address"
        },
        {
          "indexed": true,
          "internalType": "address",
          "name": "operator",
          "type": "address"
        },
        {
          "indexed": false,
          "internalType": "bool",
          "name": "approved",
          "type": "bool"
        }
      ],
      "name": "ApprovalForAll",
      "type": "event"
    },
    {
      "anonymous": false,
      "inputs": [
        {
          "indexed": false,
          "internalType": "uint256",
          "name": "_fromTokenId",
          "type": "uint256"
        },
        {
          "indexed": false,
          "internalType": "uint256",
          "name": "_toTokenId",
          "type": "uint256"
        }
      ],
      "name": "BatchMetadataUpdate",
      "type": "event"
    },
    {
      "anonymous": false,
      "inputs": [
        {
          "indexed": false,
          "internalType": "uint256",
          "name": "_tokenId",
          "type": "uint256"
        }
      ],
      "name": "MetadataUpdate",
      "type": "event"
    },
    {
      "anonymous": false,
      "inputs": [
        {
          "indexed": true,
          "internalType": "address",
          "name": "previousOwner",
          "type": "address"
        },
        {
          "indexed": true,
          "internalType": "address",
          "name": "newOwner",
          "type": "address"
        }
      ],
      "name": "OwnershipTransferred",
      "type": "event"
    },
    {
      "anonymous": false,
      "inputs": [
        {
          "indexed": true,
          "internalType": "address",
          "name": "from",
          "type": "address"
        },
        {
          "indexed": true,
          "internalType": "address",
          "name": "to",
          "type": "address"
        },
        {
          "indexed": true,
          "internalType": "uint256",
          "name": "tokenId",
          "type": "uint256"
        }
      ],
      "name": "Transfer",
      "type": "event"
    },
    {
      "inputs": [
        {
          "internalType": "address",
          "name": "to",
          "type": "address"
        },
        {
          "internalType": "uint256",
          "name": "tokenId",
          "type": "uint256"
        }
      ],
      "name": "approve",
      "outputs": [],
      "stateMutability": "nonpayable",
      "type": "function"
    },
    {
      "inputs": [
        {
          "internalType": "address",
          "name": "owner",
          "type": "address"
        }
      ],
      "name": "balanceOf",
      "outputs": [
        {
          "internalType": "uint256",
          "name": "",
          "type": "uint256"
        }
      ],
      "stateMutability": "view",
      "type": "function"
    },
    {
      "inputs": [
        {
          "internalType": "uint256",
          "name": "tokenId",
          "type": "uint256"
        }
      ],
      "name": "getApproved",
      "outputs": [
        {
          "internalType": "address",
          "name": "",
          "type": "address"
        }
      ],
      "stateMutability": "view",
      "type": "function"
    },
    {
      "inputs": [
        {
          "internalType": "address",
          "name": "owner",
          "type": "address"
        },
        {
          "internalType": "address",
          "name": "operator",
          "type": "address"
        }
      ],
      "name": "isApprovedForAll",
      "outputs": [
        {
          "internalType": "bool",
          "name": "",
          "type": "bool"
        }
      ],
      "stateMutability": "view",
      "type": "function"
    },
    {
      "inputs": [
        {
          "internalType": "string",
          "name": "uri",
          "type": "string"
        }
      ],
      "name": "isUriOwned",
      "outputs": [
        {
          "internalType": "bool",
          "name": "",
          "type": "bool"
        }
      ],
      "stateMutability": "view",
      "type": "function"
    },
    {
      "inputs": [
        {
          "internalType": "address",
          "name": "recipient",
          "type": "address"
        },
        {
          "internalType": "string",
          "name": "tokenURI",
          "type": "string"
        }
      ],
      "name": "mintNFT",
      "outputs": [],
      "stateMutability": "payable",
      "type": "function"
    },
    {
      "inputs": [],
      "name": "mintPrice",
      "outputs": [
        {
          "internalType": "uint256",
          "name": "",
          "type": "uint256"
        }
      ],
      "stateMutability": "view",
      "type": "function"
    },
    {
      "inputs": [],
      "name": "name",
      "outputs": [
        {
          "internalType": "string",
          "name": "",
          "type": "string"
        }
      ],
      "stateMutability": "view",
      "type": "function"
    },
    {
      "inputs": [],
      "name": "owner",
      "outputs": [
        {
          "internalType": "address",
          "name": "",
          "type": "address"
        }
      ],
      "stateMutability": "view",
      "type": "function"
    },
    {
      "inputs": [
        {
          "internalType": "uint256",
          "name": "tokenId",
          "type": "uint256"
        }
      ],
      "name": "ownerOf",
      "outputs": [
        {
          "internalType": "address",
          "name": "",
          "type": "address"
        }
      ],
      "stateMutability": "view",
      "type": "function"
    },
    {
      "inputs": [],
      "name": "renounceOwnership",
      "outputs": [],
      "stateMutability": "nonpayable",
      "type": "function"
    },
    {
      "inputs": [
        {
          "internalType": "address",
          "name": "from",
          "type": "address"
        },
        {
          "internalType": "address",
          "name": "to",
          "type": "address"
        },
        {
          "internalType": "uint256",
          "name": "tokenId",
          "type": "uint256"
        }
      ],
      "name": "safeTransferFrom",
      "outputs": [],
      "stateMutability": "nonpayable",
      "type": "function"
    },
    {
      "inputs": [
        {
          "internalType": "address",
          "name": "from",
          "type": "address"
        },
        {
          "internalType": "address",
          "name": "to",
          "type": "address"
        },
        {
          "internalType": "uint256",
          "name": "tokenId",
          "type": "uint256"
        },
        {
          "internalType": "bytes",
          "name": "data",
          "type": "bytes"
        }
      ],
      "name": "safeTransferFrom",
      "outputs": [],
      "stateMutability": "nonpayable",
      "type": "function"
    },
    {
      "inputs": [
        {
          "internalType": "address",
          "name": "operator",
          "type": "address"
        },
        {
          "internalType": "bool",
          "name": "approved",
          "type": "bool"
        }
      ],
      "name": "setApprovalForAll",
      "outputs": [],
      "stateMutability": "nonpayable",
      "type": "function"
    },
    {
      "inputs": [
        {
          "internalType": "bytes4",
          "name": "interfaceId",
          "type": "bytes4"
        }
      ],
      "name": "supportsInterface",
      "outputs": [
        {
          "internalType": "bool",
          "name": "",
          "type": "bool"
        }
      ],
      "stateMutability": "view",
      "type": "function"
    },
    {
      "inputs": [],
      "name": "symbol",
      "outputs": [
        {
          "internalType": "string",
          "name": "",
          "type": "string"
        }
      ],
      "stateMutability": "view",
      "type": "function"
    },
    {
      "inputs": [
        {
          "internalType": "uint256",
          "name": "tokenId",
          "type": "uint256"
        }
      ],
      "name": "tokenURI",
      "outputs": [
        {
          "internalType": "string",
          "name": "",
          "type": "string"
        }
      ],
      "stateMutability": "view",
      "type": "function"
    },
    {
      "inputs": [],
      "name": "totalMinted",
      "outputs": [
        {
          "internalType": "uint256",
          "name": "",
          "type": "uint256"
        }
      ],
      "stateMutability": "view",
      "type": "function"
    },
    {
      "inputs": [
        {
          "internalType": "address",
          "name": "from",
          "type": "address"
        },
        {
          "internalType": "address",
          "name": "to",
          "type": "address"
        },
        {
          "internalType": "uint256",
          "name": "tokenId",
          "type": "uint256"
        }
      ],
      "name": "transferFrom",
      "outputs": [],
      "stateMutability": "nonpayable",
      "type": "function"
    },
    {
      "inputs": [
        {
          "internalType": "address",
          "name": "newOwner",
          "type": "address"
        }
      ],
      "name": "transferOwnership",
      "outputs": [],
      "stateMutability": "nonpayable",
      "type": "function"
    },
    {
      "inputs": [],
      "name": "withdraw",
      "outputs": [],
      "stateMutability": "nonpayable",
      "type": "function"
    }
  ],
  "bytecode": "0x60806040523480156200001157600080fd5b506040518060400160405280600d81526020017f4d617263737465727069656365000000000000000000000000000000000000008152506040518060400160405280600481526020017f4d4152540000000000000000000000000000000000000000000000000000000081525081600090816200008f91906200041a565b508060019081620000a191906200041a565b5050506001600781905550620000cc620000c0620000d260201b60201c565b620000da60201b60201c565b62000501565b600033905090565b6000600860009054906101000a900473ffffffffffffffffffffffffffffffffffffffff16905081600860006101000a81548173ffffffffffffffffffffffffffffffffffffffff021916908373ffffffffffffffffffffffffffffffffffffffff1602179055508173ffffffffffffffffffffffffffffffffffffffff168173ffffffffffffffffffffffffffffffffffffffff167f8be0079c531659141344cd1fd0a4f28419497f9722a3daafe3b4186f6b6457e060405160405180910390a35050565b600081519050919050565b7f4e487b7100000000000000000000000000000000000000000000000000000000600052604160045260246000fd5b7f4e487b7100000000000000000000000000000000000000000000000000000000600052602260045260246000fd5b600060028204905060018216806200022257607f821691505b602082108103620002385762000237620001da565b5b50919050565b60008190508160005260206000209050919050565b60006020601f8301049050919050565b600082821b905092915050565b600060088302620002a27fffffffffffffffffffffffffffffffffffffffffffffffffffffffffffffffff8262000263565b620002ae868362000263565b95508019841693508086168417925050509392505050565b6000819050919050565b6000819050919050565b6000620002fb620002f5620002ef84620002c6565b620002d0565b620002c6565b9050919050565b6000819050919050565b6200031783620002da565b6200032f620003268262000302565b84845462000270565b825550505050565b600090565b6200034662000337565b620003538184846200030c565b505050565b5b818110156200037b576200036f6000826200033c565b60018101905062000359565b5050565b601f821115620003ca5762000394816200023e565b6200039f8462000253565b81016020851015620003af578190505b620003c7620003be8562000253565b83018262000358565b50505b505050565b600082821c905092915050565b6000620003ef60001984600802620003cf565b1980831691505092915050565b60006200040a8383620003dc565b9150826002028217905092915050565b6200042582620001a0565b67ffffffffffffffff811115620004415762000440620001ab565b5b6200044d825462000209565b6200045a8282856200037f565b600060209050601f8311600181146200049257600084156200047d578287015190505b620004898582620003fc565b865550620004f9565b601f198416620004a2866200023e565b60005b82811015620004cc57848901518255600182019150602085019450602081019050620004a5565b86831015620004ec5784890151620004e8601f891682620003dc565b8355505b6001600288020188555050505b505050505050565b61335380620005116000396000f3fe60806040526004361061012a5760003560e01c806370a08231116100ab578063a2309ff81161006f578063a2309ff8146103de578063b88d4fde14610409578063c87b56dd14610432578063e985e9c51461046f578063eacabe14146104ac578063f2fde38b146104c85761012a565b806370a082311461030b578063715018a6146103485780638da5cb5b1461035f57806395d89b411461038a578063a22cb465146103b55761012a565b806323b872dd116100f257806323b872dd1461023a5780633ccfd60b1461026357806342842e0e1461027a5780636352211e146102a35780636817c76c146102e05761012a565b806301e872ba1461012f57806301ffc9a71461016c57806306fdde03146101a9578063081812fc146101d4578063095ea7b314610211575b600080fd5b34801561013b57600080fd5b506101566004803603810190610151919061208e565b6104f1565b60405161016391906120f2565b60405180910390f35b34801561017857600080fd5b50610193600480360381019061018e9190612165565b61052c565b6040516101a091906120f2565b60405180910390f35b3480156101b557600080fd5b506101be61058d565b6040516101cb9190612211565b60405180910390f35b3480156101e057600080fd5b506101fb60048036038101906101f69190612269565b61061f565b60405161020891906122d7565b60405180910390f35b34801561021d57600080fd5b506102386004803603810190610233919061231e565b610665565b005b34801561024657600080fd5b50610261600480360381019061025c919061235e565b61077c565b005b34801561026f57600080fd5b506102786107dc565b005b34801561028657600080fd5b506102a1600480360381019061029c919061235e565b61083a565b005b3480156102af57600080fd5b506102ca60048036038101906102c59190612269565b61085a565b6040516102d791906122d7565b60405180910390f35b3480156102ec57600080fd5b506102f56108e0565b60405161030291906123c0565b60405180910390f35b34801561031757600080fd5b50610332600480360381019061032d91906123db565b6108eb565b60405161033f91906123c0565b60405180910390f35b34801561035457600080fd5b5061035d6109a2565b005b34801561036b57600080fd5b506103746109b6565b60405161038191906122d7565b60405180910390f35b34801561039657600080fd5b5061039f6109e0565b6040516103ac9190612211565b60405180910390f35b3480156103c157600080fd5b506103dc60048036038101906103d79190612434565b610a72565b005b3480156103ea57600080fd5b506103f3610a88565b60405161040091906123c0565b60405180910390f35b34801561041557600080fd5b50610430600480360381019061042b9190612515565b610a99565b005b34801561043e57600080fd5b5061045960048036038101906104549190612269565b610afb565b6040516104669190612211565b60405180910390f35b34801561047b57600080fd5b5061049660048036038101906104919190612598565b610c0d565b6040516104a391906120f2565b60405180910390f35b6104c660048036038101906104c191906125d8565b610ca1565b005b3480156104d457600080fd5b506104ef60048036038101906104ea91906123db565b610dad565b005b60006001600a836040516105059190612670565b908152602001604051809103902060009054906101000a900460ff1660ff16149050919050565b6000634906490660e01b7bffffffffffffffffffffffffffffffffffffffffffffffffffffffff1916827bffffffffffffffffffffffffffffffffffffffffffffffffffffffff19161480610586575061058582610e30565b5b9050919050565b60606000805461059c906126b6565b80601f01602080910402602001604051908101604052809291908181526020018280546105c8906126b6565b80156106155780601f106105ea57610100808354040283529160200191610615565b820191906000526020600020905b8154815290600101906020018083116105f857829003601f168201915b5050505050905090565b600061062a82610f12565b6004600083815260200190815260200160002060009054906101000a900473ffffffffffffffffffffffffffffffffffffffff169050919050565b60006106708261085a565b90508073ffffffffffffffffffffffffffffffffffffffff168373ffffffffffffffffffffffffffffffffffffffff16036106e0576040517f08c379a00000000000000000000000000000000000000000000000000000000081526004016106d790612759565b60405180910390fd5b8073ffffffffffffffffffffffffffffffffffffffff166106ff610f5d565b73ffffffffffffffffffffffffffffffffffffffff16148061072e575061072d81610728610f5d565b610c0d565b5b61076d576040517f08c379a0000000000000000000000000000000000000000000000000000000008152600401610764906127eb565b60405180910390fd5b6107778383610f65565b505050565b61078d610787610f5d565b8261101e565b6107cc576040517f08c379a00000000000000000000000000000000000000000000000000000000081526004016107c39061287d565b60405180910390fd5b6107d78383836110b3565b505050565b6107e46113ac565b60004790506107f16109b6565b73ffffffffffffffffffffffffffffffffffffffff166108fc829081150290604051600060405180830381858888f19350505050158015610836573d6000803e3d6000fd5b5050565b61085583838360405180602001604052806000815250610a99565b505050565b6000806108668361142a565b9050600073ffffffffffffffffffffffffffffffffffffffff168173ffffffffffffffffffffffffffffffffffffffff16036108d7576040517f08c379a00000000000000000000000000000000000000000000000000000000081526004016108ce906128e9565b60405180910390fd5b80915050919050565b662386f26fc1000081565b60008073ffffffffffffffffffffffffffffffffffffffff168273ffffffffffffffffffffffffffffffffffffffff160361095b576040517f08c379a00000000000000000000000000000000000000000000000000000000081526004016109529061297b565b60405180910390fd5b600360008373ffffffffffffffffffffffffffffffffffffffff1673ffffffffffffffffffffffffffffffffffffffff168152602001908152602001600020549050919050565b6109aa6113ac565b6109b46000611467565b565b6000600860009054906101000a900473ffffffffffffffffffffffffffffffffffffffff16905090565b6060600180546109ef906126b6565b80601f0160208091040260200160405190810160405280929190818152602001828054610a1b906126b6565b8015610a685780601f10610a3d57610100808354040283529160200191610a68565b820191906000526020600020905b815481529060010190602001808311610a4b57829003601f168201915b5050505050905090565b610a84610a7d610f5d565b838361152d565b5050565b6000610a946009611699565b905090565b610aaa610aa4610f5d565b8361101e565b610ae9576040517f08c379a0000000000000000000000000000000000000000000000000000000008152600401610ae09061287d565b60405180910390fd5b610af5848484846116a7565b50505050565b6060610b0682610f12565b6000600660008481526020019081526020016000208054610b26906126b6565b80601f0160208091040260200160405190810160405280929190818152602001828054610b52906126b6565b8015610b9f5780601f10610b7457610100808354040283529160200191610b9f565b820191906000526020600020905b815481529060010190602001808311610b8257829003601f168201915b505050505090506000610bb0611703565b90506000815103610bc5578192505050610c08565b600082511115610bfa578082604051602001610be292919061299b565b60405160208183030381529060405292505050610c08565b610c038461171a565b925050505b919050565b6000600560008473ffffffffffffffffffffffffffffffffffffffff1673ffffffffffffffffffffffffffffffffffffffff16815260200190815260200160002060008373ffffffffffffffffffffffffffffffffffffffff1673ffffffffffffffffffffffffffffffffffffffff16815260200190815260200160002060009054906101000a900460ff16905092915050565b610ca9611782565b662386f26fc10000341015610cf3576040517f08c379a0000000000000000000000000000000000000000000000000000000008152600401610cea90612a0b565b60405180910390fd5b610cfc816104f1565b15610d3c576040517f08c379a0000000000000000000000000000000000000000000000000000000008152600401610d3390612a77565b60405180910390fd5b610d4660096117d1565b6000610d526009611699565b9050610d5e83826117e7565b610d688183611a04565b6001600a83604051610d7a9190612670565b908152602001604051809103902060006101000a81548160ff021916908360ff16021790555050610da9611aa8565b5050565b610db56113ac565b600073ffffffffffffffffffffffffffffffffffffffff168173ffffffffffffffffffffffffffffffffffffffff1603610e24576040517f08c379a0000000000000000000000000000000000000000000000000000000008152600401610e1b90612b09565b60405180910390fd5b610e2d81611467565b50565b60007f80ac58cd000000000000000000000000000000000000000000000000000000007bffffffffffffffffffffffffffffffffffffffffffffffffffffffff1916827bffffffffffffffffffffffffffffffffffffffffffffffffffffffff19161480610efb57507f5b5e139f000000000000000000000000000000000000000000000000000000007bffffffffffffffffffffffffffffffffffffffffffffffffffffffff1916827bffffffffffffffffffffffffffffffffffffffffffffffffffffffff1916145b80610f0b5750610f0a82611ab2565b5b9050919050565b610f1b81611b1c565b610f5a576040517f08c379a0000000000000000000000000000000000000000000000000000000008152600401610f51906128e9565b60405180910390fd5b50565b600033905090565b816004600083815260200190815260200160002060006101000a81548173ffffffffffffffffffffffffffffffffffffffff021916908373ffffffffffffffffffffffffffffffffffffffff160217905550808273ffffffffffffffffffffffffffffffffffffffff16610fd88361085a565b73ffffffffffffffffffffffffffffffffffffffff167f8c5be1e5ebec7d5bd14f71427d1e84f3dd0314c0f7b2291e5b200ac8c7c3b92560405160405180910390a45050565b60008061102a8361085a565b90508073ffffffffffffffffffffffffffffffffffffffff168473ffffffffffffffffffffffffffffffffffffffff16148061106c575061106b8185610c0d565b5b806110aa57508373ffffffffffffffffffffffffffffffffffffffff166110928461061f565b73ffffffffffffffffffffffffffffffffffffffff16145b91505092915050565b8273ffffffffffffffffffffffffffffffffffffffff166110d38261085a565b73ffffffffffffffffffffffffffffffffffffffff1614611129576040517f08c379a000000000000000000000000000000000000000000000000000000000815260040161112090612b9b565b60405180910390fd5b600073ffffffffffffffffffffffffffffffffffffffff168273ffffffffffffffffffffffffffffffffffffffff1603611198576040517f08c379a000000000000000000000000000000000000000000000000000000000815260040161118f90612c2d565b60405180910390fd5b6111a58383836001611b5d565b8273ffffffffffffffffffffffffffffffffffffffff166111c58261085a565b73ffffffffffffffffffffffffffffffffffffffff161461121b576040517f08c379a000000000000000000000000000000000000000000000000000000000815260040161121290612b9b565b60405180910390fd5b6004600082815260200190815260200160002060006101000a81549073ffffffffffffffffffffffffffffffffffffffff02191690556001600360008573ffffffffffffffffffffffffffffffffffffffff1673ffffffffffffffffffffffffffffffffffffffff168152602001908152602001600020600082825403925050819055506001600360008473ffffffffffffffffffffffffffffffffffffffff1673ffffffffffffffffffffffffffffffffffffffff16815260200190815260200160002060008282540192505081905550816002600083815260200190815260200160002060006101000a81548173ffffffffffffffffffffffffffffffffffffffff021916908373ffffffffffffffffffffffffffffffffffffffff160217905550808273ffffffffffffffffffffffffffffffffffffffff168473ffffffffffffffffffffffffffffffffffffffff167fddf252ad1be2c89b69c2b068fc378daa952ba7f163c4a11628f55a4df523b3ef60405160405180910390a46113a78383836001611b63565b505050565b6113b4610f5d565b73ffffffffffffffffffffffffffffffffffffffff166113d26109b6565b73ffffffffffffffffffffffffffffffffffffffff1614611428576040517f08c379a000000000000000000000000000000000000000000000000000000000815260040161141f90612c99565b60405180910390fd5b565b60006002600083815260200190815260200160002060009054906101000a900473ffffffffffffffffffffffffffffffffffffffff169050919050565b6000600860009054906101000a900473ffffffffffffffffffffffffffffffffffffffff16905081600860006101000a81548173ffffffffffffffffffffffffffffffffffffffff021916908373ffffffffffffffffffffffffffffffffffffffff1602179055508173ffffffffffffffffffffffffffffffffffffffff168173ffffffffffffffffffffffffffffffffffffffff167f8be0079c531659141344cd1fd0a4f28419497f9722a3daafe3b4186f6b6457e060405160405180910390a35050565b8173ffffffffffffffffffffffffffffffffffffffff168373ffffffffffffffffffffffffffffffffffffffff160361159b576040517f08c379a000000000000000000000000000000000000000000000000000000000815260040161159290612d05565b60405180910390fd5b80600560008573ffffffffffffffffffffffffffffffffffffffff1673ffffffffffffffffffffffffffffffffffffffff16815260200190815260200160002060008473ffffffffffffffffffffffffffffffffffffffff1673ffffffffffffffffffffffffffffffffffffffff16815260200190815260200160002060006101000a81548160ff0219169083151502179055508173ffffffffffffffffffffffffffffffffffffffff168373ffffffffffffffffffffffffffffffffffffffff167f17307eab39ab6107e8899845ad3d59bd9653f200f220920489ca2b5937696c318360405161168c91906120f2565b60405180910390a3505050565b600081600001549050919050565b6116b28484846110b3565b6116be84848484611b69565b6116fd576040517f08c379a00000000000000000000000000000000000000000000000000000000081526004016116f490612d97565b60405180910390fd5b50505050565b606060405180602001604052806000815250905090565b606061172582610f12565b600061172f611703565b9050600081511161174f576040518060200160405280600081525061177a565b8061175984611cf0565b60405160200161176a92919061299b565b6040516020818303038152906040525b915050919050565b6002600754036117c7576040517f08c379a00000000000000000000000000000000000000000000000000000000081526004016117be90612e03565b60405180910390fd5b6002600781905550565b6001816000016000828254019250508190555050565b600073ffffffffffffffffffffffffffffffffffffffff168273ffffffffffffffffffffffffffffffffffffffff1603611856576040517f08c379a000000000000000000000000000000000000000000000000000000000815260040161184d90612e6f565b60405180910390fd5b61185f81611b1c565b1561189f576040517f08c379a000000000000000000000000000000000000000000000000000000000815260040161189690612edb565b60405180910390fd5b6118ad600083836001611b5d565b6118b681611b1c565b156118f6576040517f08c379a00000000000000000000000000000000000000000000000000000000081526004016118ed90612edb565b60405180910390fd5b6001600360008473ffffffffffffffffffffffffffffffffffffffff1673ffffffffffffffffffffffffffffffffffffffff16815260200190815260200160002060008282540192505081905550816002600083815260200190815260200160002060006101000a81548173ffffffffffffffffffffffffffffffffffffffff021916908373ffffffffffffffffffffffffffffffffffffffff160217905550808273ffffffffffffffffffffffffffffffffffffffff16600073ffffffffffffffffffffffffffffffffffffffff167fddf252ad1be2c89b69c2b068fc378daa952ba7f163c4a11628f55a4df523b3ef60405160405180910390a4611a00600083836001611b63565b5050565b611a0d82611b1c565b611a4c576040517f08c379a0000000000000000000000000000000000000000000000000000000008152600401611a4390612f6d565b60405180910390fd5b80600660008481526020019081526020016000209081611a6c9190613139565b507ff8e1a15aba9398e019f0b49df1a4fde98ee17ae345cb5f6b5e2c27f5033e8ce782604051611a9c91906123c0565b60405180910390a15050565b6001600781905550565b60007f01ffc9a7000000000000000000000000000000000000000000000000000000007bffffffffffffffffffffffffffffffffffffffffffffffffffffffff1916827bffffffffffffffffffffffffffffffffffffffffffffffffffffffff1916149050919050565b60008073ffffffffffffffffffffffffffffffffffffffff16611b3e8361142a565b73ffffffffffffffffffffffffffffffffffffffff1614159050919050565b50505050565b50505050565b6000611b8a8473ffffffffffffffffffffffffffffffffffffffff16611dbe565b15611ce3578373ffffffffffffffffffffffffffffffffffffffff1663150b7a02611bb3610f5d565b8786866040518563ffffffff1660e01b8152600401611bd59493929190613260565b6020604051808303816000875af1925050508015611c1157506040513d601f19601f82011682018060405250810190611c0e91906132c1565b60015b611c93573d8060008114611c41576040519150601f19603f3d011682016040523d82523d6000602084013e611c46565b606091505b506000815103611c8b576040517f08c379a0000000000000000000000000000000000000000000000000000000008152600401611c8290612d97565b60405180910390fd5b805181602001fd5b63150b7a0260e01b7bffffffffffffffffffffffffffffffffffffffffffffffffffffffff1916817bffffffffffffffffffffffffffffffffffffffffffffffffffffffff191614915050611ce8565b600190505b949350505050565b606060006001611cff84611de1565b01905060008167ffffffffffffffff811115611d1e57611d1d611f63565b5b6040519080825280601f01601f191660200182016040528015611d505781602001600182028036833780820191505090505b509050600082602001820190505b600115611db3578080600190039150507f3031323334353637383961626364656600000000000000000000000000000000600a86061a8153600a8581611da757611da66132ee565b5b04945060008503611d5e575b819350505050919050565b6000808273ffffffffffffffffffffffffffffffffffffffff163b119050919050565b600080600090507a184f03e93ff9f4daa797ed6e38ed64bf6a1f0100000000000000008310611e3f577a184f03e93ff9f4daa797ed6e38ed64bf6a1f0100000000000000008381611e3557611e346132ee565b5b0492506040810190505b6d04ee2d6d415b85acef81000000008310611e7c576d04ee2d6d415b85acef81000000008381611e7257611e716132ee565b5b0492506020810190505b662386f26fc100008310611eab57662386f26fc100008381611ea157611ea06132ee565b5b0492506010810190505b6305f5e1008310611ed4576305f5e1008381611eca57611ec96132ee565b5b0492506008810190505b6127108310611ef9576127108381611eef57611eee6132ee565b5b0492506004810190505b60648310611f1c5760648381611f1257611f116132ee565b5b0492506002810190505b600a8310611f2b576001810190505b80915050919050565b6000604051905090565b600080fd5b600080fd5b600080fd5b600080fd5b6000601f19601f8301169050919050565b7f4e487b7100000000000000000000000000000000000000000000000000000000600052604160045260246000fd5b611f9b82611f52565b810181811067ffffffffffffffff82111715611fba57611fb9611f63565b5b80604052505050565b6000611fcd611f34565b9050611fd98282611f92565b919050565b600067ffffffffffffffff821115611ff957611ff8611f63565b5b61200282611f52565b9050602081019050919050565b82818337600083830152505050565b600061203161202c84611fde565b611fc3565b90508281526020810184848401111561204d5761204c611f4d565b5b61205884828561200f565b509392505050565b600082601f83011261207557612074611f48565b5b813561208584826020860161201e565b91505092915050565b6000602082840312156120a4576120a3611f3e565b5b600082013567ffffffffffffffff8111156120c2576120c1611f43565b5b6120ce84828501612060565b91505092915050565b60008115159050919050565b6120ec816120d7565b82525050565b600060208201905061210760008301846120e3565b92915050565b60007fffffffff0000000000000000000000000000000000000000000000000000000082169050919050565b6121428161210d565b811461214d57600080fd5b50565b60008135905061215f81612139565b92915050565b60006020828403121561217b5761217a611f3e565b5b600061218984828501612150565b91505092915050565b600081519050919050565b600082825260208201905092915050565b60005b838110156121cc5780820151818401526020810190506121b1565b60008484015250505050565b60006121e382612192565b6121ed818561219d565b93506121fd8185602086016121ae565b61220681611f52565b840191505092915050565b6000602082019050818103600083015261222b81846121d8565b905092915050565b6000819050919050565b61224681612233565b811461225157600080fd5b50565b6000813590506122638161223d565b92915050565b60006020828403121561227f5761227e611f3e565b5b600061228d84828501612254565b91505092915050565b600073ffffffffffffffffffffffffffffffffffffffff82169050919050565b60006122c182612296565b9050919050565b6122d1816122b6565b82525050565b60006020820190506122ec60008301846122c8565b92915050565b6122fb816122b6565b811461230657600080fd5b50565b600081359050612318816122f2565b92915050565b6000806040838503121561233557612334611f3e565b5b600061234385828601612309565b925050602061235485828601612254565b9150509250929050565b60008060006060848603121561237757612376611f3e565b5b600061238586828701612309565b935050602061239686828701612309565b92505060406123a786828701612254565b9150509250925092565b6123ba81612233565b82525050565b60006020820190506123d560008301846123b1565b92915050565b6000602082840312156123f1576123f0611f3e565b5b60006123ff84828501612309565b91505092915050565b612411816120d7565b811461241c57600080fd5b50565b60008135905061242e81612408565b92915050565b6000806040838503121561244b5761244a611f3e565b5b600061245985828601612309565b925050602061246a8582860161241f565b9150509250929050565b600067ffffffffffffffff82111561248f5761248e611f63565b5b61249882611f52565b9050602081019050919050565b60006124b86124b384612474565b611fc3565b9050828152602081018484840111156124d4576124d3611f4d565b5b6124df84828561200f565b509392505050565b600082601f8301126124fc576124fb611f48565b5b813561250c8482602086016124a5565b91505092915050565b6000806000806080858703121561252f5761252e611f3e565b5b600061253d87828801612309565b945050602061254e87828801612309565b935050604061255f87828801612254565b925050606085013567ffffffffffffffff8111156125805761257f611f43565b5b61258c878288016124e7565b91505092959194509250565b600080604083850312156125af576125ae611f3e565b5b60006125bd85828601612309565b92505060206125ce85828601612309565b9150509250929050565b600080604083850312156125ef576125ee611f3e565b5b60006125fd85828601612309565b925050602083013567ffffffffffffffff81111561261e5761261d611f43565b5b61262a85828601612060565b9150509250929050565b600081905092915050565b600061264a82612192565b6126548185612634565b93506126648185602086016121ae565b80840191505092915050565b600061267c828461263f565b915081905092915050565b7f4e487b7100000000000000000000000000000000000000000000000000000000600052602260045260246000fd5b600060028204905060018216806126ce57607f821691505b6020821081036126e1576126e0612687565b5b50919050565b7f4552433732313a20617070726f76616c20746f2063757272656e74206f776e6560008201527f7200000000000000000000000000000000000000000000000000000000000000602082015250565b600061274360218361219d565b915061274e826126e7565b604082019050919050565b6000602082019050818103600083015261277281612736565b9050919050565b7f4552433732313a20617070726f76652063616c6c6572206973206e6f7420746f60008201527f6b656e206f776e6572206f7220617070726f76656420666f7220616c6c000000602082015250565b60006127d5603d8361219d565b91506127e082612779565b604082019050919050565b60006020820190508181036000830152612804816127c8565b9050919050565b7f4552433732313a2063616c6c6572206973206e6f7420746f6b656e206f776e6560008201527f72206f7220617070726f76656400000000000000000000000000000000000000602082015250565b6000612867602d8361219d565b91506128728261280b565b604082019050919050565b600060208201905081810360008301526128968161285a565b9050919050565b7f4552433732313a20696e76616c696420746f6b656e2049440000000000000000600082015250565b60006128d360188361219d565b91506128de8261289d565b602082019050919050565b60006020820190508181036000830152612902816128c6565b9050919050565b7f4552433732313a2061646472657373207a65726f206973206e6f74206120766160008201527f6c6964206f776e65720000000000000000000000000000000000000000000000602082015250565b600061296560298361219d565b915061297082612909565b604082019050919050565b6000602082019050818103600083015261299481612958565b9050919050565b60006129a7828561263f565b91506129b3828461263f565b91508190509392505050565b7f4e6f7420656e6f7567682045746865722073656e742e00000000000000000000600082015250565b60006129f560168361219d565b9150612a00826129bf565b602082019050919050565b60006020820190508181036000830152612a24816129e8565b9050919050565b7f55524920697320616c7265616479206f776e65642e0000000000000000000000600082015250565b6000612a6160158361219d565b9150612a6c82612a2b565b602082019050919050565b60006020820190508181036000830152612a9081612a54565b9050919050565b7f4f776e61626c653a206e6577206f776e657220697320746865207a65726f206160008201527f6464726573730000000000000000000000000000000000000000000000000000602082015250565b6000612af360268361219d565b9150612afe82612a97565b604082019050919050565b60006020820190508181036000830152612b2281612ae6565b9050919050565b7f4552433732313a207472616e736665722066726f6d20696e636f72726563742060008201527f6f776e6572000000000000000000000000000000000000000000000000000000602082015250565b6000612b8560258361219d565b9150612b9082612b29565b604082019050919050565b60006020820190508181036000830152612bb481612b78565b9050919050565b7f4552433732313a207472616e7366657220746f20746865207a65726f2061646460008201527f7265737300000000000000000000000000000000000000000000000000000000602082015250565b6000612c1760248361219d565b9150612c2282612bbb565b604082019050919050565b60006020820190508181036000830152612c4681612c0a565b9050919050565b7f4f776e61626c653a2063616c6c6572206973206e6f7420746865206f776e6572600082015250565b6000612c8360208361219d565b9150612c8e82612c4d565b602082019050919050565b60006020820190508181036000830152612cb281612c76565b9050919050565b7f4552433732313a20617070726f766520746f2063616c6c657200000000000000600082015250565b6000612cef60198361219d565b9150612cfa82612cb9565b602082019050919050565b60006020820190508181036000830152612d1e81612ce2565b9050919050565b7f4552433732313a207472616e7366657220746f206e6f6e20455243373231526560008201527f63656976657220696d706c656d656e7465720000000000000000000000000000602082015250565b6000612d8160328361219d565b9150612d8c82612d25565b604082019050919050565b60006020820190508181036000830152612db081612d74565b9050919050565b7f5265656e7472616e637947756172643a207265656e7472616e742063616c6c00600082015250565b6000612ded601f8361219d565b9150612df882612db7565b602082019050919050565b60006020820190508181036000830152612e1c81612de0565b9050919050565b7f4552433732313a206d696e7420746f20746865207a65726f2061646472657373600082015250565b6000612e5960208361219d565b9150612e6482612e23565b602082019050919050565b60006020820190508181036000830152612e8881612e4c565b9050919050565b7f4552433732313a20746f6b656e20616c7265616479206d696e74656400000000600082015250565b6000612ec5601c8361219d565b9150612ed082612e8f565b602082019050919050565b60006020820190508181036000830152612ef481612eb8565b9050919050565b7f45524337323155524953746f726167653a2055524920736574206f66206e6f6e60008201527f6578697374656e7420746f6b656e000000000000000000000000000000000000602082015250565b6000612f57602e8361219d565b9150612f6282612efb565b604082019050919050565b60006020820190508181036000830152612f8681612f4a565b9050919050565b60008190508160005260206000209050919050565b60006020601f8301049050919050565b600082821b905092915050565b600060088302612fef7fffffffffffffffffffffffffffffffffffffffffffffffffffffffffffffffff82612fb2565b612ff98683612fb2565b95508019841693508086168417925050509392505050565b6000819050919050565b600061303661303161302c84612233565b613011565b612233565b9050919050565b6000819050919050565b6130508361301b565b61306461305c8261303d565b848454612fbf565b825550505050565b600090565b61307961306c565b613084818484613047565b505050565b5b818110156130a85761309d600082613071565b60018101905061308a565b5050565b601f8211156130ed576130be81612f8d565b6130c784612fa2565b810160208510156130d6578190505b6130ea6130e285612fa2565b830182613089565b50505b505050565b600082821c905092915050565b6000613110600019846008026130f2565b1980831691505092915050565b600061312983836130ff565b9150826002028217905092915050565b61314282612192565b67ffffffffffffffff81111561315b5761315a611f63565b5b61316582546126b6565b6131708282856130ac565b600060209050601f8311600181146131a35760008415613191578287015190505b61319b858261311d565b865550613203565b601f1984166131b186612f8d565b60005b828110156131d9578489015182556001820191506020850194506020810190506131b4565b868310156131f657848901516131f2601f8916826130ff565b8355505b6001600288020188555050505b505050505050565b600081519050919050565b600082825260208201905092915050565b60006132328261320b565b61323c8185613216565b935061324c8185602086016121ae565b61325581611f52565b840191505092915050565b600060808201905061327560008301876122c8565b61328260208301866122c8565b61328f60408301856123b1565b81810360608301526132a18184613227565b905095945050505050565b6000815190506132bb81612139565b92915050565b6000602082840312156132d7576132d6611f3e565b5b60006132e5848285016132ac565b91505092915050565b7f4e487b7100000000000000000000000000000000000000000000000000000000600052601260045260246000fdfea264697066735822122014af8ddbbbf85e0d3cae4215ec8bacf3a07c25df3467b6a3d5ffe52c5d5b69c564736f6c63430008180033",
  "linkReferences": {},
  "deployedLinkReferences": {}
}