{
  "_format": "hh-sol-artifact-1",
  "contractName": "Marcsterpiece",
  "sourceName": "contracts/Marcsterpiece.sol",
  "abi": [
    {
      "inputs": [],
      "stateMutability": "nonpayable",
      "type": "constructor"
    },
    {
      "anonymous": false,
      "inputs": [
        {
          "indexed": true,
          "internalType": "address",
          "name": "owner",
          "type": "address"
        },
        {
          "indexed": true,
          "internalType": "address",
          "name": "approved",
          "type": "address"
        },
        {
          "indexed": true,
          "internalType": "uint256",
          "name": "tokenId",
          "type": "uint256"
        }
      ],
      "name": "Approval",
      "type": "event"
    },
    {
      "anonymous": false,
      "inputs": [
        {
          "indexed": true,
          "internalType": "address",
          "name": "owner",
          "type": "address"
        },
        {
          "indexed": true,
          "internalType": "address",
          "name": "operator",
          "type": "address"
        },
        {
          "indexed": false,
          "internalType": "bool",
          "name": "approved",
          "type": "bool"
        }
      ],
      "name": "ApprovalForAll",
      "type": "event"
    },
    {
      "anonymous": false,
      "inputs": [
        {
          "indexed": false,
          "internalType": "uint256",
          "name": "_fromTokenId",
          "type": "uint256"
        },
        {
          "indexed": false,
          "internalType": "uint256",
          "name": "_toTokenId",
          "type": "uint256"
        }
      ],
      "name": "BatchMetadataUpdate",
      "type": "event"
    },
    {
      "anonymous": false,
      "inputs": [
        {
          "indexed": false,
          "internalType": "uint256",
          "name": "_tokenId",
          "type": "uint256"
        }
      ],
      "name": "MetadataUpdate",
      "type": "event"
    },
    {
      "anonymous": false,
      "inputs": [
        {
          "indexed": true,
          "internalType": "address",
          "name": "previousOwner",
          "type": "address"
        },
        {
          "indexed": true,
          "internalType": "address",
          "name": "newOwner",
          "type": "address"
        }
      ],
      "name": "OwnershipTransferred",
      "type": "event"
    },
    {
      "anonymous": false,
      "inputs": [
        {
          "indexed": true,
          "internalType": "address",
          "name": "from",
          "type": "address"
        },
        {
          "indexed": true,
          "internalType": "address",
          "name": "to",
          "type": "address"
        },
        {
          "indexed": true,
          "internalType": "uint256",
          "name": "tokenId",
          "type": "uint256"
        }
      ],
      "name": "Transfer",
      "type": "event"
    },
    {
      "inputs": [
        {
          "internalType": "address",
          "name": "to",
          "type": "address"
        },
        {
          "internalType": "uint256",
          "name": "tokenId",
          "type": "uint256"
        }
      ],
      "name": "approve",
      "outputs": [],
      "stateMutability": "nonpayable",
      "type": "function"
    },
    {
      "inputs": [
        {
          "internalType": "address",
          "name": "owner",
          "type": "address"
        }
      ],
      "name": "balanceOf",
      "outputs": [
        {
          "internalType": "uint256",
          "name": "",
          "type": "uint256"
        }
      ],
      "stateMutability": "view",
      "type": "function"
    },
    {
      "inputs": [
        {
          "internalType": "uint256",
          "name": "tokenId",
          "type": "uint256"
        }
      ],
      "name": "getApproved",
      "outputs": [
        {
          "internalType": "address",
          "name": "",
          "type": "address"
        }
      ],
      "stateMutability": "view",
      "type": "function"
    },
    {
      "inputs": [
        {
          "internalType": "address",
          "name": "owner",
          "type": "address"
        },
        {
          "internalType": "address",
          "name": "operator",
          "type": "address"
        }
      ],
      "name": "isApprovedForAll",
      "outputs": [
        {
          "internalType": "bool",
          "name": "",
          "type": "bool"
        }
      ],
      "stateMutability": "view",
      "type": "function"
    },
    {
      "inputs": [
        {
          "internalType": "string",
          "name": "uri",
          "type": "string"
        }
      ],
      "name": "isUriOwned",
      "outputs": [
        {
          "internalType": "bool",
          "name": "",
          "type": "bool"
        }
      ],
      "stateMutability": "view",
      "type": "function"
    },
    {
      "inputs": [
        {
          "internalType": "address",
          "name": "recipient",
          "type": "address"
        },
        {
          "internalType": "string",
          "name": "tokenURI",
          "type": "string"
        }
      ],
      "name": "mintNFT",
      "outputs": [],
      "stateMutability": "payable",
      "type": "function"
    },
    {
      "inputs": [],
      "name": "mintPrice",
      "outputs": [
        {
          "internalType": "uint256",
          "name": "",
          "type": "uint256"
        }
      ],
      "stateMutability": "view",
      "type": "function"
    },
    {
      "inputs": [],
      "name": "name",
      "outputs": [
        {
          "internalType": "string",
          "name": "",
          "type": "string"
        }
      ],
      "stateMutability": "view",
      "type": "function"
    },
    {
      "inputs": [],
      "name": "owner",
      "outputs": [
        {
          "internalType": "address",
          "name": "",
          "type": "address"
        }
      ],
      "stateMutability": "view",
      "type": "function"
    },
    {
      "inputs": [
        {
          "internalType": "uint256",
          "name": "tokenId",
          "type": "uint256"
        }
      ],
      "name": "ownerOf",
      "outputs": [
        {
          "internalType": "address",
          "name": "",
          "type": "address"
        }
      ],
      "stateMutability": "view",
      "type": "function"
    },
    {
      "inputs": [],
      "name": "renounceOwnership",
      "outputs": [],
      "stateMutability": "nonpayable",
      "type": "function"
    },
    {
      "inputs": [
        {
          "internalType": "address",
          "name": "from",
          "type": "address"
        },
        {
          "internalType": "address",
          "name": "to",
          "type": "address"
        },
        {
          "internalType": "uint256",
          "name": "tokenId",
          "type": "uint256"
        }
      ],
      "name": "safeTransferFrom",
      "outputs": [],
      "stateMutability": "nonpayable",
      "type": "function"
    },
    {
      "inputs": [
        {
          "internalType": "address",
          "name": "from",
          "type": "address"
        },
        {
          "internalType": "address",
          "name": "to",
          "type": "address"
        },
        {
          "internalType": "uint256",
          "name": "tokenId",
          "type": "uint256"
        },
        {
          "internalType": "bytes",
          "name": "data",
          "type": "bytes"
        }
      ],
      "name": "safeTransferFrom",
      "outputs": [],
      "stateMutability": "nonpayable",
      "type": "function"
    },
    {
      "inputs": [
        {
          "internalType": "address",
          "name": "operator",
          "type": "address"
        },
        {
          "internalType": "bool",
          "name": "approved",
          "type": "bool"
        }
      ],
      "name": "setApprovalForAll",
      "outputs": [],
      "stateMutability": "nonpayable",
      "type": "function"
    },
    {
      "inputs": [
        {
          "internalType": "bytes4",
          "name": "interfaceId",
          "type": "bytes4"
        }
      ],
      "name": "supportsInterface",
      "outputs": [
        {
          "internalType": "bool",
          "name": "",
          "type": "bool"
        }
      ],
      "stateMutability": "view",
      "type": "function"
    },
    {
      "inputs": [],
      "name": "symbol",
      "outputs": [
        {
          "internalType": "string",
          "name": "",
          "type": "string"
        }
      ],
      "stateMutability": "view",
      "type": "function"
    },
    {
      "inputs": [
        {
          "internalType": "uint256",
          "name": "tokenId",
          "type": "uint256"
        }
      ],
      "name": "tokenURI",
      "outputs": [
        {
          "internalType": "string",
          "name": "",
          "type": "string"
        }
      ],
      "stateMutability": "view",
      "type": "function"
    },
    {
      "inputs": [
        {
          "internalType": "address",
          "name": "from",
          "type": "address"
        },
        {
          "internalType": "address",
          "name": "to",
          "type": "address"
        },
        {
          "internalType": "uint256",
          "name": "tokenId",
          "type": "uint256"
        }
      ],
      "name": "transferFrom",
      "outputs": [],
      "stateMutability": "nonpayable",
      "type": "function"
    },
    {
      "inputs": [
        {
          "internalType": "address",
          "name": "newOwner",
          "type": "address"
        }
      ],
      "name": "transferOwnership",
      "outputs": [],
      "stateMutability": "nonpayable",
      "type": "function"
    },
    {
      "inputs": [],
      "name": "withdraw",
      "outputs": [],
      "stateMutability": "nonpayable",
      "type": "function"
    }
  ],
  "bytecode": "0x60806040523480156200001157600080fd5b506040518060400160405280600d81526020017f4d617263737465727069656365000000000000000000000000000000000000008152506040518060400160405280600481526020017f4d4152540000000000000000000000000000000000000000000000000000000081525081600090816200008f91906200041a565b508060019081620000a191906200041a565b5050506001600781905550620000cc620000c0620000d260201b60201c565b620000da60201b60201c565b62000501565b600033905090565b6000600860009054906101000a900473ffffffffffffffffffffffffffffffffffffffff16905081600860006101000a81548173ffffffffffffffffffffffffffffffffffffffff021916908373ffffffffffffffffffffffffffffffffffffffff1602179055508173ffffffffffffffffffffffffffffffffffffffff168173ffffffffffffffffffffffffffffffffffffffff167f8be0079c531659141344cd1fd0a4f28419497f9722a3daafe3b4186f6b6457e060405160405180910390a35050565b600081519050919050565b7f4e487b7100000000000000000000000000000000000000000000000000000000600052604160045260246000fd5b7f4e487b7100000000000000000000000000000000000000000000000000000000600052602260045260246000fd5b600060028204905060018216806200022257607f821691505b602082108103620002385762000237620001da565b5b50919050565b60008190508160005260206000209050919050565b60006020601f8301049050919050565b600082821b905092915050565b600060088302620002a27fffffffffffffffffffffffffffffffffffffffffffffffffffffffffffffffff8262000263565b620002ae868362000263565b95508019841693508086168417925050509392505050565b6000819050919050565b6000819050919050565b6000620002fb620002f5620002ef84620002c6565b620002d0565b620002c6565b9050919050565b6000819050919050565b6200031783620002da565b6200032f620003268262000302565b84845462000270565b825550505050565b600090565b6200034662000337565b620003538184846200030c565b505050565b5b818110156200037b576200036f6000826200033c565b60018101905062000359565b5050565b601f821115620003ca5762000394816200023e565b6200039f8462000253565b81016020851015620003af578190505b620003c7620003be8562000253565b83018262000358565b50505b505050565b600082821c905092915050565b6000620003ef60001984600802620003cf565b1980831691505092915050565b60006200040a8383620003dc565b9150826002028217905092915050565b6200042582620001a0565b67ffffffffffffffff811115620004415762000440620001ab565b5b6200044d825462000209565b6200045a8282856200037f565b600060209050601f8311600181146200049257600084156200047d578287015190505b620004898582620003fc565b865550620004f9565b601f198416620004a2866200023e565b60005b82811015620004cc57848901518255600182019150602085019450602081019050620004a5565b86831015620004ec5784890151620004e8601f891682620003dc565b8355505b6001600288020188555050505b505050505050565b61330c80620005116000396000f3fe60806040526004361061011f5760003560e01c806370a08231116100a0578063b88d4fde11610064578063b88d4fde146103d3578063c87b56dd146103fc578063e985e9c514610439578063eacabe1414610476578063f2fde38b146104925761011f565b806370a0823114610300578063715018a61461033d5780638da5cb5b1461035457806395d89b411461037f578063a22cb465146103aa5761011f565b806323b872dd116100e757806323b872dd1461022f5780633ccfd60b1461025857806342842e0e1461026f5780636352211e146102985780636817c76c146102d55761011f565b806301e872ba1461012457806301ffc9a71461016157806306fdde031461019e578063081812fc146101c9578063095ea7b314610206575b600080fd5b34801561013057600080fd5b5061014b60048036038101906101469190612047565b6104bb565b60405161015891906120ab565b60405180910390f35b34801561016d57600080fd5b506101886004803603810190610183919061211e565b6104f6565b60405161019591906120ab565b60405180910390f35b3480156101aa57600080fd5b506101b3610557565b6040516101c091906121ca565b60405180910390f35b3480156101d557600080fd5b506101f060048036038101906101eb9190612222565b6105e9565b6040516101fd9190612290565b60405180910390f35b34801561021257600080fd5b5061022d600480360381019061022891906122d7565b61062f565b005b34801561023b57600080fd5b5061025660048036038101906102519190612317565b610746565b005b34801561026457600080fd5b5061026d6107a6565b005b34801561027b57600080fd5b5061029660048036038101906102919190612317565b610804565b005b3480156102a457600080fd5b506102bf60048036038101906102ba9190612222565b610824565b6040516102cc9190612290565b60405180910390f35b3480156102e157600080fd5b506102ea6108aa565b6040516102f79190612379565b60405180910390f35b34801561030c57600080fd5b5061032760048036038101906103229190612394565b6108b5565b6040516103349190612379565b60405180910390f35b34801561034957600080fd5b5061035261096c565b005b34801561036057600080fd5b50610369610980565b6040516103769190612290565b60405180910390f35b34801561038b57600080fd5b506103946109aa565b6040516103a191906121ca565b60405180910390f35b3480156103b657600080fd5b506103d160048036038101906103cc91906123ed565b610a3c565b005b3480156103df57600080fd5b506103fa60048036038101906103f591906124ce565b610a52565b005b34801561040857600080fd5b50610423600480360381019061041e9190612222565b610ab4565b60405161043091906121ca565b60405180910390f35b34801561044557600080fd5b50610460600480360381019061045b9190612551565b610bc6565b60405161046d91906120ab565b60405180910390f35b610490600480360381019061048b9190612591565b610c5a565b005b34801561049e57600080fd5b506104b960048036038101906104b49190612394565b610d66565b005b60006001600a836040516104cf9190612629565b908152602001604051809103902060009054906101000a900460ff1660ff16149050919050565b6000634906490660e01b7bffffffffffffffffffffffffffffffffffffffffffffffffffffffff1916827bffffffffffffffffffffffffffffffffffffffffffffffffffffffff19161480610550575061054f82610de9565b5b9050919050565b6060600080546105669061266f565b80601f01602080910402602001604051908101604052809291908181526020018280546105929061266f565b80156105df5780601f106105b4576101008083540402835291602001916105df565b820191906000526020600020905b8154815290600101906020018083116105c257829003601f168201915b5050505050905090565b60006105f482610ecb565b6004600083815260200190815260200160002060009054906101000a900473ffffffffffffffffffffffffffffffffffffffff169050919050565b600061063a82610824565b90508073ffffffffffffffffffffffffffffffffffffffff168373ffffffffffffffffffffffffffffffffffffffff16036106aa576040517f08c379a00000000000000000000000000000000000000000000000000000000081526004016106a190612712565b60405180910390fd5b8073ffffffffffffffffffffffffffffffffffffffff166106c9610f16565b73ffffffffffffffffffffffffffffffffffffffff1614806106f857506106f7816106f2610f16565b610bc6565b5b610737576040517f08c379a000000000000000000000000000000000000000000000000000000000815260040161072e906127a4565b60405180910390fd5b6107418383610f1e565b505050565b610757610751610f16565b82610fd7565b610796576040517f08c379a000000000000000000000000000000000000000000000000000000000815260040161078d90612836565b60405180910390fd5b6107a183838361106c565b505050565b6107ae611365565b60004790506107bb610980565b73ffffffffffffffffffffffffffffffffffffffff166108fc829081150290604051600060405180830381858888f19350505050158015610800573d6000803e3d6000fd5b5050565b61081f83838360405180602001604052806000815250610a52565b505050565b600080610830836113e3565b9050600073ffffffffffffffffffffffffffffffffffffffff168173ffffffffffffffffffffffffffffffffffffffff16036108a1576040517f08c379a0000000000000000000000000000000000000000000000000000000008152600401610898906128a2565b60405180910390fd5b80915050919050565b662386f26fc1000081565b60008073ffffffffffffffffffffffffffffffffffffffff168273ffffffffffffffffffffffffffffffffffffffff1603610925576040517f08c379a000000000000000000000000000000000000000000000000000000000815260040161091c90612934565b60405180910390fd5b600360008373ffffffffffffffffffffffffffffffffffffffff1673ffffffffffffffffffffffffffffffffffffffff168152602001908152602001600020549050919050565b610974611365565b61097e6000611420565b565b6000600860009054906101000a900473ffffffffffffffffffffffffffffffffffffffff16905090565b6060600180546109b99061266f565b80601f01602080910402602001604051908101604052809291908181526020018280546109e59061266f565b8015610a325780601f10610a0757610100808354040283529160200191610a32565b820191906000526020600020905b815481529060010190602001808311610a1557829003601f168201915b5050505050905090565b610a4e610a47610f16565b83836114e6565b5050565b610a63610a5d610f16565b83610fd7565b610aa2576040517f08c379a0000000000000000000000000000000000000000000000000000000008152600401610a9990612836565b60405180910390fd5b610aae84848484611652565b50505050565b6060610abf82610ecb565b6000600660008481526020019081526020016000208054610adf9061266f565b80601f0160208091040260200160405190810160405280929190818152602001828054610b0b9061266f565b8015610b585780601f10610b2d57610100808354040283529160200191610b58565b820191906000526020600020905b815481529060010190602001808311610b3b57829003601f168201915b505050505090506000610b696116ae565b90506000815103610b7e578192505050610bc1565b600082511115610bb3578082604051602001610b9b929190612954565b60405160208183030381529060405292505050610bc1565b610bbc846116c5565b925050505b919050565b6000600560008473ffffffffffffffffffffffffffffffffffffffff1673ffffffffffffffffffffffffffffffffffffffff16815260200190815260200160002060008373ffffffffffffffffffffffffffffffffffffffff1673ffffffffffffffffffffffffffffffffffffffff16815260200190815260200160002060009054906101000a900460ff16905092915050565b610c6261172d565b662386f26fc10000341015610cac576040517f08c379a0000000000000000000000000000000000000000000000000000000008152600401610ca3906129c4565b60405180910390fd5b610cb5816104bb565b15610cf5576040517f08c379a0000000000000000000000000000000000000000000000000000000008152600401610cec90612a30565b60405180910390fd5b610cff600961177c565b6000610d0b6009611792565b9050610d1783826117a0565b610d2181836119bd565b6001600a83604051610d339190612629565b908152602001604051809103902060006101000a81548160ff021916908360ff16021790555050610d62611a61565b5050565b610d6e611365565b600073ffffffffffffffffffffffffffffffffffffffff168173ffffffffffffffffffffffffffffffffffffffff1603610ddd576040517f08c379a0000000000000000000000000000000000000000000000000000000008152600401610dd490612ac2565b60405180910390fd5b610de681611420565b50565b60007f80ac58cd000000000000000000000000000000000000000000000000000000007bffffffffffffffffffffffffffffffffffffffffffffffffffffffff1916827bffffffffffffffffffffffffffffffffffffffffffffffffffffffff19161480610eb457507f5b5e139f000000000000000000000000000000000000000000000000000000007bffffffffffffffffffffffffffffffffffffffffffffffffffffffff1916827bffffffffffffffffffffffffffffffffffffffffffffffffffffffff1916145b80610ec45750610ec382611a6b565b5b9050919050565b610ed481611ad5565b610f13576040517f08c379a0000000000000000000000000000000000000000000000000000000008152600401610f0a906128a2565b60405180910390fd5b50565b600033905090565b816004600083815260200190815260200160002060006101000a81548173ffffffffffffffffffffffffffffffffffffffff021916908373ffffffffffffffffffffffffffffffffffffffff160217905550808273ffffffffffffffffffffffffffffffffffffffff16610f9183610824565b73ffffffffffffffffffffffffffffffffffffffff167f8c5be1e5ebec7d5bd14f71427d1e84f3dd0314c0f7b2291e5b200ac8c7c3b92560405160405180910390a45050565b600080610fe383610824565b90508073ffffffffffffffffffffffffffffffffffffffff168473ffffffffffffffffffffffffffffffffffffffff16148061102557506110248185610bc6565b5b8061106357508373ffffffffffffffffffffffffffffffffffffffff1661104b846105e9565b73ffffffffffffffffffffffffffffffffffffffff16145b91505092915050565b8273ffffffffffffffffffffffffffffffffffffffff1661108c82610824565b73ffffffffffffffffffffffffffffffffffffffff16146110e2576040517f08c379a00000000000000000000000000000000000000000000000000000000081526004016110d990612b54565b60405180910390fd5b600073ffffffffffffffffffffffffffffffffffffffff168273ffffffffffffffffffffffffffffffffffffffff1603611151576040517f08c379a000000000000000000000000000000000000000000000000000000000815260040161114890612be6565b60405180910390fd5b61115e8383836001611b16565b8273ffffffffffffffffffffffffffffffffffffffff1661117e82610824565b73ffffffffffffffffffffffffffffffffffffffff16146111d4576040517f08c379a00000000000000000000000000000000000000000000000000000000081526004016111cb90612b54565b60405180910390fd5b6004600082815260200190815260200160002060006101000a81549073ffffffffffffffffffffffffffffffffffffffff02191690556001600360008573ffffffffffffffffffffffffffffffffffffffff1673ffffffffffffffffffffffffffffffffffffffff168152602001908152602001600020600082825403925050819055506001600360008473ffffffffffffffffffffffffffffffffffffffff1673ffffffffffffffffffffffffffffffffffffffff16815260200190815260200160002060008282540192505081905550816002600083815260200190815260200160002060006101000a81548173ffffffffffffffffffffffffffffffffffffffff021916908373ffffffffffffffffffffffffffffffffffffffff160217905550808273ffffffffffffffffffffffffffffffffffffffff168473ffffffffffffffffffffffffffffffffffffffff167fddf252ad1be2c89b69c2b068fc378daa952ba7f163c4a11628f55a4df523b3ef60405160405180910390a46113608383836001611b1c565b505050565b61136d610f16565b73ffffffffffffffffffffffffffffffffffffffff1661138b610980565b73ffffffffffffffffffffffffffffffffffffffff16146113e1576040517f08c379a00000000000000000000000000000000000000000000000000000000081526004016113d890612c52565b60405180910390fd5b565b60006002600083815260200190815260200160002060009054906101000a900473ffffffffffffffffffffffffffffffffffffffff169050919050565b6000600860009054906101000a900473ffffffffffffffffffffffffffffffffffffffff16905081600860006101000a81548173ffffffffffffffffffffffffffffffffffffffff021916908373ffffffffffffffffffffffffffffffffffffffff1602179055508173ffffffffffffffffffffffffffffffffffffffff168173ffffffffffffffffffffffffffffffffffffffff167f8be0079c531659141344cd1fd0a4f28419497f9722a3daafe3b4186f6b6457e060405160405180910390a35050565b8173ffffffffffffffffffffffffffffffffffffffff168373ffffffffffffffffffffffffffffffffffffffff1603611554576040517f08c379a000000000000000000000000000000000000000000000000000000000815260040161154b90612cbe565b60405180910390fd5b80600560008573ffffffffffffffffffffffffffffffffffffffff1673ffffffffffffffffffffffffffffffffffffffff16815260200190815260200160002060008473ffffffffffffffffffffffffffffffffffffffff1673ffffffffffffffffffffffffffffffffffffffff16815260200190815260200160002060006101000a81548160ff0219169083151502179055508173ffffffffffffffffffffffffffffffffffffffff168373ffffffffffffffffffffffffffffffffffffffff167f17307eab39ab6107e8899845ad3d59bd9653f200f220920489ca2b5937696c318360405161164591906120ab565b60405180910390a3505050565b61165d84848461106c565b61166984848484611b22565b6116a8576040517f08c379a000000000000000000000000000000000000000000000000000000000815260040161169f90612d50565b60405180910390fd5b50505050565b606060405180602001604052806000815250905090565b60606116d082610ecb565b60006116da6116ae565b905060008151116116fa5760405180602001604052806000815250611725565b8061170484611ca9565b604051602001611715929190612954565b6040516020818303038152906040525b915050919050565b600260075403611772576040517f08c379a000000000000000000000000000000000000000000000000000000000815260040161176990612dbc565b60405180910390fd5b6002600781905550565b6001816000016000828254019250508190555050565b600081600001549050919050565b600073ffffffffffffffffffffffffffffffffffffffff168273ffffffffffffffffffffffffffffffffffffffff160361180f576040517f08c379a000000000000000000000000000000000000000000000000000000000815260040161180690612e28565b60405180910390fd5b61181881611ad5565b15611858576040517f08c379a000000000000000000000000000000000000000000000000000000000815260040161184f90612e94565b60405180910390fd5b611866600083836001611b16565b61186f81611ad5565b156118af576040517f08c379a00000000000000000000000000000000000000000000000000000000081526004016118a690612e94565b60405180910390fd5b6001600360008473ffffffffffffffffffffffffffffffffffffffff1673ffffffffffffffffffffffffffffffffffffffff16815260200190815260200160002060008282540192505081905550816002600083815260200190815260200160002060006101000a81548173ffffffffffffffffffffffffffffffffffffffff021916908373ffffffffffffffffffffffffffffffffffffffff160217905550808273ffffffffffffffffffffffffffffffffffffffff16600073ffffffffffffffffffffffffffffffffffffffff167fddf252ad1be2c89b69c2b068fc378daa952ba7f163c4a11628f55a4df523b3ef60405160405180910390a46119b9600083836001611b1c565b5050565b6119c682611ad5565b611a05576040517f08c379a00000000000000000000000000000000000000000000000000000000081526004016119fc90612f26565b60405180910390fd5b80600660008481526020019081526020016000209081611a2591906130f2565b507ff8e1a15aba9398e019f0b49df1a4fde98ee17ae345cb5f6b5e2c27f5033e8ce782604051611a559190612379565b60405180910390a15050565b6001600781905550565b60007f01ffc9a7000000000000000000000000000000000000000000000000000000007bffffffffffffffffffffffffffffffffffffffffffffffffffffffff1916827bffffffffffffffffffffffffffffffffffffffffffffffffffffffff1916149050919050565b60008073ffffffffffffffffffffffffffffffffffffffff16611af7836113e3565b73ffffffffffffffffffffffffffffffffffffffff1614159050919050565b50505050565b50505050565b6000611b438473ffffffffffffffffffffffffffffffffffffffff16611d77565b15611c9c578373ffffffffffffffffffffffffffffffffffffffff1663150b7a02611b6c610f16565b8786866040518563ffffffff1660e01b8152600401611b8e9493929190613219565b6020604051808303816000875af1925050508015611bca57506040513d601f19601f82011682018060405250810190611bc7919061327a565b60015b611c4c573d8060008114611bfa576040519150601f19603f3d011682016040523d82523d6000602084013e611bff565b606091505b506000815103611c44576040517f08c379a0000000000000000000000000000000000000000000000000000000008152600401611c3b90612d50565b60405180910390fd5b805181602001fd5b63150b7a0260e01b7bffffffffffffffffffffffffffffffffffffffffffffffffffffffff1916817bffffffffffffffffffffffffffffffffffffffffffffffffffffffff191614915050611ca1565b600190505b949350505050565b606060006001611cb884611d9a565b01905060008167ffffffffffffffff811115611cd757611cd6611f1c565b5b6040519080825280601f01601f191660200182016040528015611d095781602001600182028036833780820191505090505b509050600082602001820190505b600115611d6c578080600190039150507f3031323334353637383961626364656600000000000000000000000000000000600a86061a8153600a8581611d6057611d5f6132a7565b5b04945060008503611d17575b819350505050919050565b6000808273ffffffffffffffffffffffffffffffffffffffff163b119050919050565b600080600090507a184f03e93ff9f4daa797ed6e38ed64bf6a1f0100000000000000008310611df8577a184f03e93ff9f4daa797ed6e38ed64bf6a1f0100000000000000008381611dee57611ded6132a7565b5b0492506040810190505b6d04ee2d6d415b85acef81000000008310611e35576d04ee2d6d415b85acef81000000008381611e2b57611e2a6132a7565b5b0492506020810190505b662386f26fc100008310611e6457662386f26fc100008381611e5a57611e596132a7565b5b0492506010810190505b6305f5e1008310611e8d576305f5e1008381611e8357611e826132a7565b5b0492506008810190505b6127108310611eb2576127108381611ea857611ea76132a7565b5b0492506004810190505b60648310611ed55760648381611ecb57611eca6132a7565b5b0492506002810190505b600a8310611ee4576001810190505b80915050919050565b6000604051905090565b600080fd5b600080fd5b600080fd5b600080fd5b6000601f19601f8301169050919050565b7f4e487b7100000000000000000000000000000000000000000000000000000000600052604160045260246000fd5b611f5482611f0b565b810181811067ffffffffffffffff82111715611f7357611f72611f1c565b5b80604052505050565b6000611f86611eed565b9050611f928282611f4b565b919050565b600067ffffffffffffffff821115611fb257611fb1611f1c565b5b611fbb82611f0b565b9050602081019050919050565b82818337600083830152505050565b6000611fea611fe584611f97565b611f7c565b90508281526020810184848401111561200657612005611f06565b5b612011848285611fc8565b509392505050565b600082601f83011261202e5761202d611f01565b5b813561203e848260208601611fd7565b91505092915050565b60006020828403121561205d5761205c611ef7565b5b600082013567ffffffffffffffff81111561207b5761207a611efc565b5b61208784828501612019565b91505092915050565b60008115159050919050565b6120a581612090565b82525050565b60006020820190506120c0600083018461209c565b92915050565b60007fffffffff0000000000000000000000000000000000000000000000000000000082169050919050565b6120fb816120c6565b811461210657600080fd5b50565b600081359050612118816120f2565b92915050565b60006020828403121561213457612133611ef7565b5b600061214284828501612109565b91505092915050565b600081519050919050565b600082825260208201905092915050565b60005b8381101561218557808201518184015260208101905061216a565b60008484015250505050565b600061219c8261214b565b6121a68185612156565b93506121b6818560208601612167565b6121bf81611f0b565b840191505092915050565b600060208201905081810360008301526121e48184612191565b905092915050565b6000819050919050565b6121ff816121ec565b811461220a57600080fd5b50565b60008135905061221c816121f6565b92915050565b60006020828403121561223857612237611ef7565b5b60006122468482850161220d565b91505092915050565b600073ffffffffffffffffffffffffffffffffffffffff82169050919050565b600061227a8261224f565b9050919050565b61228a8161226f565b82525050565b60006020820190506122a56000830184612281565b92915050565b6122b48161226f565b81146122bf57600080fd5b50565b6000813590506122d1816122ab565b92915050565b600080604083850312156122ee576122ed611ef7565b5b60006122fc858286016122c2565b925050602061230d8582860161220d565b9150509250929050565b6000806000606084860312156123305761232f611ef7565b5b600061233e868287016122c2565b935050602061234f868287016122c2565b92505060406123608682870161220d565b9150509250925092565b612373816121ec565b82525050565b600060208201905061238e600083018461236a565b92915050565b6000602082840312156123aa576123a9611ef7565b5b60006123b8848285016122c2565b91505092915050565b6123ca81612090565b81146123d557600080fd5b50565b6000813590506123e7816123c1565b92915050565b6000806040838503121561240457612403611ef7565b5b6000612412858286016122c2565b9250506020612423858286016123d8565b9150509250929050565b600067ffffffffffffffff82111561244857612447611f1c565b5b61245182611f0b565b9050602081019050919050565b600061247161246c8461242d565b611f7c565b90508281526020810184848401111561248d5761248c611f06565b5b612498848285611fc8565b509392505050565b600082601f8301126124b5576124b4611f01565b5b81356124c584826020860161245e565b91505092915050565b600080600080608085870312156124e8576124e7611ef7565b5b60006124f6878288016122c2565b9450506020612507878288016122c2565b93505060406125188782880161220d565b925050606085013567ffffffffffffffff81111561253957612538611efc565b5b612545878288016124a0565b91505092959194509250565b6000806040838503121561256857612567611ef7565b5b6000612576858286016122c2565b9250506020612587858286016122c2565b9150509250929050565b600080604083850312156125a8576125a7611ef7565b5b60006125b6858286016122c2565b925050602083013567ffffffffffffffff8111156125d7576125d6611efc565b5b6125e385828601612019565b9150509250929050565b600081905092915050565b60006126038261214b565b61260d81856125ed565b935061261d818560208601612167565b80840191505092915050565b600061263582846125f8565b915081905092915050565b7f4e487b7100000000000000000000000000000000000000000000000000000000600052602260045260246000fd5b6000600282049050600182168061268757607f821691505b60208210810361269a57612699612640565b5b50919050565b7f4552433732313a20617070726f76616c20746f2063757272656e74206f776e6560008201527f7200000000000000000000000000000000000000000000000000000000000000602082015250565b60006126fc602183612156565b9150612707826126a0565b604082019050919050565b6000602082019050818103600083015261272b816126ef565b9050919050565b7f4552433732313a20617070726f76652063616c6c6572206973206e6f7420746f60008201527f6b656e206f776e6572206f7220617070726f76656420666f7220616c6c000000602082015250565b600061278e603d83612156565b915061279982612732565b604082019050919050565b600060208201905081810360008301526127bd81612781565b9050919050565b7f4552433732313a2063616c6c6572206973206e6f7420746f6b656e206f776e6560008201527f72206f7220617070726f76656400000000000000000000000000000000000000602082015250565b6000612820602d83612156565b915061282b826127c4565b604082019050919050565b6000602082019050818103600083015261284f81612813565b9050919050565b7f4552433732313a20696e76616c696420746f6b656e2049440000000000000000600082015250565b600061288c601883612156565b915061289782612856565b602082019050919050565b600060208201905081810360008301526128bb8161287f565b9050919050565b7f4552433732313a2061646472657373207a65726f206973206e6f74206120766160008201527f6c6964206f776e65720000000000000000000000000000000000000000000000602082015250565b600061291e602983612156565b9150612929826128c2565b604082019050919050565b6000602082019050818103600083015261294d81612911565b9050919050565b600061296082856125f8565b915061296c82846125f8565b91508190509392505050565b7f4e6f7420656e6f7567682045746865722073656e742e00000000000000000000600082015250565b60006129ae601683612156565b91506129b982612978565b602082019050919050565b600060208201905081810360008301526129dd816129a1565b9050919050565b7f55524920697320616c7265616479206f776e65642e0000000000000000000000600082015250565b6000612a1a601583612156565b9150612a25826129e4565b602082019050919050565b60006020820190508181036000830152612a4981612a0d565b9050919050565b7f4f776e61626c653a206e6577206f776e657220697320746865207a65726f206160008201527f6464726573730000000000000000000000000000000000000000000000000000602082015250565b6000612aac602683612156565b9150612ab782612a50565b604082019050919050565b60006020820190508181036000830152612adb81612a9f565b9050919050565b7f4552433732313a207472616e736665722066726f6d20696e636f72726563742060008201527f6f776e6572000000000000000000000000000000000000000000000000000000602082015250565b6000612b3e602583612156565b9150612b4982612ae2565b604082019050919050565b60006020820190508181036000830152612b6d81612b31565b9050919050565b7f4552433732313a207472616e7366657220746f20746865207a65726f2061646460008201527f7265737300000000000000000000000000000000000000000000000000000000602082015250565b6000612bd0602483612156565b9150612bdb82612b74565b604082019050919050565b60006020820190508181036000830152612bff81612bc3565b9050919050565b7f4f776e61626c653a2063616c6c6572206973206e6f7420746865206f776e6572600082015250565b6000612c3c602083612156565b9150612c4782612c06565b602082019050919050565b60006020820190508181036000830152612c6b81612c2f565b9050919050565b7f4552433732313a20617070726f766520746f2063616c6c657200000000000000600082015250565b6000612ca8601983612156565b9150612cb382612c72565b602082019050919050565b60006020820190508181036000830152612cd781612c9b565b9050919050565b7f4552433732313a207472616e7366657220746f206e6f6e20455243373231526560008201527f63656976657220696d706c656d656e7465720000000000000000000000000000602082015250565b6000612d3a603283612156565b9150612d4582612cde565b604082019050919050565b60006020820190508181036000830152612d6981612d2d565b9050919050565b7f5265656e7472616e637947756172643a207265656e7472616e742063616c6c00600082015250565b6000612da6601f83612156565b9150612db182612d70565b602082019050919050565b60006020820190508181036000830152612dd581612d99565b9050919050565b7f4552433732313a206d696e7420746f20746865207a65726f2061646472657373600082015250565b6000612e12602083612156565b9150612e1d82612ddc565b602082019050919050565b60006020820190508181036000830152612e4181612e05565b9050919050565b7f4552433732313a20746f6b656e20616c7265616479206d696e74656400000000600082015250565b6000612e7e601c83612156565b9150612e8982612e48565b602082019050919050565b60006020820190508181036000830152612ead81612e71565b9050919050565b7f45524337323155524953746f726167653a2055524920736574206f66206e6f6e60008201527f6578697374656e7420746f6b656e000000000000000000000000000000000000602082015250565b6000612f10602e83612156565b9150612f1b82612eb4565b604082019050919050565b60006020820190508181036000830152612f3f81612f03565b9050919050565b60008190508160005260206000209050919050565b60006020601f8301049050919050565b600082821b905092915050565b600060088302612fa87fffffffffffffffffffffffffffffffffffffffffffffffffffffffffffffffff82612f6b565b612fb28683612f6b565b95508019841693508086168417925050509392505050565b6000819050919050565b6000612fef612fea612fe5846121ec565b612fca565b6121ec565b9050919050565b6000819050919050565b61300983612fd4565b61301d61301582612ff6565b848454612f78565b825550505050565b600090565b613032613025565b61303d818484613000565b505050565b5b818110156130615761305660008261302a565b600181019050613043565b5050565b601f8211156130a65761307781612f46565b61308084612f5b565b8101602085101561308f578190505b6130a361309b85612f5b565b830182613042565b50505b505050565b600082821c905092915050565b60006130c9600019846008026130ab565b1980831691505092915050565b60006130e283836130b8565b9150826002028217905092915050565b6130fb8261214b565b67ffffffffffffffff81111561311457613113611f1c565b5b61311e825461266f565b613129828285613065565b600060209050601f83116001811461315c576000841561314a578287015190505b61315485826130d6565b8655506131bc565b601f19841661316a86612f46565b60005b828110156131925784890151825560018201915060208501945060208101905061316d565b868310156131af57848901516131ab601f8916826130b8565b8355505b6001600288020188555050505b505050505050565b600081519050919050565b600082825260208201905092915050565b60006131eb826131c4565b6131f581856131cf565b9350613205818560208601612167565b61320e81611f0b565b840191505092915050565b600060808201905061322e6000830187612281565b61323b6020830186612281565b613248604083018561236a565b818103606083015261325a81846131e0565b905095945050505050565b600081519050613274816120f2565b92915050565b6000602082840312156132905761328f611ef7565b5b600061329e84828501613265565b91505092915050565b7f4e487b7100000000000000000000000000000000000000000000000000000000600052601260045260246000fdfea2646970667358221220d4751b7d554d68a59d589aa51396621954041395a244aa1c00db094c8d911b2964736f6c63430008180033",
  "linkReferences": {},
  "deployedLinkReferences": {}
}